:100000000C9485000C94B6000C94B6000C94B600C9
:100010000C94B6000C94B6000C94B6000C94B60088
:100020000C94B6000C9421010C9421010C94210134
:100030000C94B6000C94B6000C94B6000C94B60068
:100040000C94B6000C94B6000C94B6000C94B60058
:100050000C94B6000C94B6000C94B6000C940005F9
:100060000C94B6000C9413030C9449030C94B60042
:100070000C94B6000C94B6000C94B6000C94B60028
:100080000C94B6000C94B6000C94B6000C94B60018
:100090000C94B6000C94B6000C94B6000C94B60008
:1000A0000C94B6000C94B6000C94B6000C94B600F8
:1000B0000C94B6000C94B6000C94B6000C94B600E8
:1000C0000C94B6000C94B6000C94B6000C94B600D8
:1000D0000C94B6000C94B6000C94B6000C94B600C8
:1000E0000C94B6000C94CC010C942A020C947D0361
:1000F0000C9473030C94AA010C94C0030C944C024E
:100100000C949F010C94B8017D0311241FBECFEF06
:10011000D1E2DEBFCDBF00E00CBF12E0A0E0B2E054
:10012000E8EAFBE000E00BBF02C007900D92AE349E
:10013000B107D9F723E0AEE4B2E001C01D92A833C5
:10014000B207E1F711E0CAE0D1E000E006C0229773
:100150000109FE010BBF0E94CE05C830D10780E027
:100160000807A9F70E94F1040C94D2050C94000032
:1001700026E040E855E260E070E082E992E00E940B
:10018000B10262E072E082E992E00C941B04E0911B
:100190009202F09193020190F081E02D60910002B3
:1001A00082E992E019956EE172E082E992E00E94A4
:1001B000FE0360910002709101024AE050E082E982
:1001C00092E00E94D00466E272E082E992E00E942E
:1001D000FE03609100027091010240E150E082E96B
:1001E00092E00E94D0046EE272E082E992E00E9406
:1001F000FE03609100027091010248E050E082E944
:1002000092E00E94D00466E372E082E992E00E94EC
:10021000FE03609100027091010242E050E082E929
:1002200092E00E94D80480910002909101028E37E2
:10023000910509F4FFCF019690930102809300028B
:1002400008951F920F920FB60F9211240BB60F92C2
:100250002F933F934F935F936F937F938F939F93CE
:10026000AF93BF93EF93FF93E0919002F0919102CF
:10027000309709F451C0868DA685B785958581FF95
:1002800004C08C91892329F447C08C91892309F0FB
:1002900043C0A389B4899C918589809589238C93D7
:1002A000868997890197F1F7208D318DA685B785CD
:1002B000758558E040E0C9010197F1F7842F90E07F
:1002C00095958795482F6C91672309F040685150A8
:1002D00091F7868D81FD409580914F0290E00196C7
:1002E0008F73992720914E02281749F0A0914F0251
:1002F000B0E0A05BBD4F4C9380934F0203C0868D4E
:100300008160868F828D938D0197F1F7A389B489DF
:100310008C919589892B8C93FF91EF91BF91AF912F
:100320009F918F917F916F915F914F913F912F910D
:100330000F900BBE0F900FBE0F901F901895FC01F1
:10034000818D228D90E0805C9F4F821B91098F737D
:1003500099270895FC01918D828D981731F0828D37
:10036000E80FF11D858D90E008958FEF9FEF0895C0
:10037000FC01918D828D981761F0828DDF01A80FAD
:10038000B11D5D968C91928D9F5F9F73928F90E0CF
:1003900008958FEF9FEF089583E793E0892B41F055
:1003A00080E090E0892B21F00E947303811125C029
:1003B00080E090E0892B41F080E090E0892B21F0F3
:1003C0000E94000081111CC080E090E0892B41F068
:1003D00080E090E0892B21F00E940000811113C081
:1003E00080E090E0892BA1F080E090E0892B81F003
:1003F0000E94000081110AC008950E940000D8CF19
:100400000E940000E1CF0E940000EACF0C9400009F
:100410000895FC01848DDF01A80FB11DA35ABF4FC1
:100420002C91848D90E001968F739927848FA689F3
:10043000B7892C93A089B1898C9180648C93938D1A
:10044000848D981306C00288F389E02D80818F7D0A
:1004500080830895CF93DF93EC01888D8823C9F0C2
:10046000EA89FB89808185FD05C0A889B9898C91BD
:1004700086FD0FC00FB607FCF5CF808185FFF2CF58
:10048000A889B9898C9185FFEDCFCE010E94090220
:10049000E7CFDF91CF910895CF92DF92FF920F9334
:1004A0001F93CF93DF931F92CDB7DEB76C01DC01B2
:1004B0005B969C915B975C968C915C97981307C0B8
:1004C0005096ED91FC915197808185FD32C0F601E7
:1004D000038D10E00F5F1F4F0F731127F02EF601F1
:1004E000848DF81211C00FB607FCF9CFD6015096D3
:1004F000ED91FC915197808185FFF1CFC601698311
:100500000E9409026981EBCF838DE80FF11DE35A48
:10051000FF4F6083D6015B960C935B975296ED91EB
:10052000FC91539780818062808381E058968C9300
:100530000DC0D6015696ED91FC9157976083509669
:10054000ED91FC91519780818064808381E090E0FF
:100550000F90DF91CF911F910F91FF90DF90CF907F
:100560000895BF92CF92DF92EF92FF92CF93DF93E5
:10057000EC016A017B01B22EE889F98982E080836F
:10058000411581EE580761057105A1F060E079E041
:100590008DE390E0A70196010E94AC05215031093E
:1005A000410951095695479537952795211580E1C1
:1005B000380798F0E889F989108260E874E88EE1DC
:1005C00090E0A70196010E94AC0521503109410934
:1005D00051095695479537952795EC85FD853083CC
:1005E000EE85FF852083188EEC89FD89B082EA892B
:1005F000FB89808180618083EA89FB8980818860B2
:100600008083EA89FB89808180688083EA89FB890D
:1006100080818F7D8083DF91CF91FF90EF90DF907D
:10062000CF90BF9008951F920F920FB60F92112492
:100630000BB60F922F938F939F93EF93FF93E091BD
:10064000A202F091A3028081E091A802F091A90298
:1006500082FD12C090818091AB028F5F8F732091D9
:10066000AC02821751F0E091AB02F0E0EE56FD4F84
:10067000958F8093AB0201C08081FF91EF919F9194
:100680008F912F910F900BBE0F900FBE0F901F9068
:1006900018951F920F920FB60F9211240BB60F925E
:1006A0002F933F934F935F936F937F938F939F937A
:1006B000AF93BF93EF93FF9382E992E00E94090208
:1006C000FF91EF91BF91AF919F918F917F916F912A
:1006D0005F914F913F912F910F900BBE0F900FBEE6
:1006E0000F901F90189582E992E00E949F0121E0EF
:1006F000892B09F420E0822F089510929502109220
:10070000940288EE93E0A0E0B0E08093960290938C
:100710009702A0939802B093990282E492E090939A
:1007200093028093920285EC90E090939F028093D5
:100730009E0284EC90E09093A1028093A00280EC52
:1007400090E09093A3028093A20281EC90E09093BA
:10075000A5028093A40282EC90E09093A70280937C
:10076000A60286EC90E09093A9028093A8021092D2
:10077000AB021092AC021092AD021092AE0208953C
:10078000CF92DF92EF92FF920F931F93CF93DF935D
:100790006C017A01EB01E60EF71E00E010E0CE15C9
:1007A000DF0561F06991D601ED91FC910190F08136
:1007B000E02DC6011995080F191FF1CFC801DF916F
:1007C000CF911F910F91FF90EF90DF90CF90089500
:1007D0006115710581F0DB010D900020E9F7AD0195
:1007E00041505109461B570BDC01ED91FC910280F1
:1007F000F381E02D199480E090E008950C94E803D3
:10080000DC01ED91FC910190F081E02D19940F93A2
:100810001F93CF93DF93EC016DE00E9400048C01E5
:100820006AE0CE010E940004800F911FDF91CF91FA
:100830001F910F9108950F931F93CF93DF93EC01B6
:100840000E94E8038C01CE010E940704800F911FD3
:10085000DF91CF911F910F9108958F929F92AF9248
:10086000BF92CF92DF92EF92FF920F931F93CF939D
:10087000DF93CDB7DEB7A1970FB6F894DEBF0FBEFA
:10088000CDBF7C01C42EE52FCB01D22E19A221E0D1
:100890002D1510F02AE0D22E8E010F5D1F4F8D2CEA
:1008A000912CA12CB12C6C2D7E2FA50194010E94BE
:1008B000AC058C2DD29E80191124015011098A306B
:1008C00014F4805D01C0895CF80180832115310535
:1008D0004105510521F0C22EE32FCA01E4CFB80132
:1008E000C7010E94E803A1960FB6F894DEBF0FBEC1
:1008F000CDBFDF91CF911F910F91FF90EF90DF90CF
:10090000CF90BF90AF909F908F900895CF92DF923D
:10091000EF92FF920F931F93CF93DF93EC016A0145
:100920007B012115310579F4E881F9810190F0818D
:10093000E02D642FDF91CF911F910F91FF90EF90E9
:10094000DF90CF9019942A303105E9F477FF1AC06F
:100950006DE20E9400048C0144275527BA014C190E
:100960005D096E097F092AE0CE010E942D04800FE7
:10097000911FDF91CF911F910F91FF90EF90DF902A
:10098000CF9008952AE0B701A601CE01DF91CF9163
:100990001F910F91FF90EF90DF90CF900C942D045A
:1009A0009A01AB01662757FD6095762F0C9486045B
:1009B0000F931F93CF93DF93EC019A01AB0166274E
:1009C00057FD6095762F0E9486048C01CE010E940F
:1009D0000704800F911FDF91CF911F910F91089510
:1009E00008950E944A050E94F0040E94B800CCECD1
:1009F000D1E00E94C7002097E1F30E94CC01F9CF1B
:100A00001F920F920FB60F9211242F933F938F9343
:100A10009F93AF93BF938091300390913103A09146
:100A20003203B091330330912F0323E0230F2D378E
:100A300020F40196A11DB11D05C026E8230F0296E2
:100A4000A11DB11D20932F03809330039093310398
:100A5000A0933203B0933303809134039091350314
:100A6000A0913603B09137030196A11DB11D80936B
:100A7000340390933503A0933603B0933703BF91AB
:100A8000AF919F918F913F912F910F900FBE0F903B
:100A90001F901895789484B5826084BD84B5816078
:100AA00084BD85B5826085BD85B5816085BDEEE676
:100AB000F0E0808181608083E1E8F0E01082808155
:100AC00082608083808181608083E0E8F0E08081C3
:100AD00081608083E1EBF0E0808184608083E0EBE3
:100AE000F0E0808181608083E1E9F0E080818260D4
:100AF0008083808181608083E0E9F0E08081816093
:100B00008083E1EAF0E0808182608083808181607F
:100B10008083E0EAF0E0808181608083E1E2F1E0BF
:100B2000808182608083808181608083E0E2F1E067
:100B3000808181608083EAE7F0E080818460808347
:100B400080818260808380818160808380818068F1
:100B500080831092C1000895A1E21A2EAA1BBB1B2C
:100B6000FD010DC0AA1FBB1FEE1FFF1FA217B30779
:100B7000E407F50720F0A21BB30BE40BF50B661F8F
:100B8000771F881F991F1A9469F760957095809553
:100B900090959B01AC01BD01CF0108950790F6919E
:080BA000E02D1994F894FFCF39
:100BA80021004153434949205461626C65207E20ED
:100BB800436861726163746572204D6170002C2016
:100BC8006465633A20002C206865783A20002C2060
:100BD8006F63743A20002C2062696E3A200000008E
:0E0BE80000004C02C0039F01B801AA012A02BE
:00000001FF
