:100000000C94D1010C9402020C9402020C94020292
:100010000C9402020C9402020C9402020C94020250
:100020000C9402020C9491060C9491060C94910687
:100030000C9402020C9402020C9402020C94020230
:100040000C9402020C9402020C9402020C94020220
:100050000C9402020C9402020C9402020C94BD0E49
:100060000C9402020C947A0B0C94B00B0C940202C8
:100070000C9402020C9402020C9402020C940202F0
:100080000C9402020C9402020C9402020C940202E0
:100090000C9402020C9402020C9402020C94890447
:1000A0000C9402020C9402020C9402020C940202C0
:1000B0000C9402020C9402020C9402020C940202B0
:1000C0000C9402020C9402020C9402020C94270C71
:1000D0000C945D0C0C9402020C94D40C0C940A0D3C
:1000E0000C940202D90FDC0FCB0FCF0FD50F1310DA
:1000F000E00FE40FEA0FEE0FF20FF80FFC0F001005
:10010000131006100A100E100C94E40F0C94C20584
:100110000C940A100C948D060C94DC0F0C941206AF
:100120000C9406100C94FC0F0C94D50F0C94D90F62
:100130000C94B4020C940E100C94910C0C94910A33
:100140000C94F80F0C94340D0C94110A0C94E00FDD
:100150000C94BA050C94870C0C94BE020C94DA0B28
:100160000C94EA0F0C94B30A0C94A70E0C94D505CA
:100170000C9450020C94F20F0C941F0A0C94E4059A
:100180000C94AD020C94060A0C9413100C94330AD0
:100190000C94E40B0C943E0D0C94CF0F0C94810D39
:1001A0000C9445020C94CB0F0C94EE0F0C94E505C7
:1001B0000C94001000000A0B02090C0D0E08070336
:1001C000040100000000000000000000000000002A
:1001D000000000000000000000000000000000001F
:1001E00012111000000000000000000000000000DC
:1001F00000000000000000000000010210202008A4
:100200000810204010204080020102010804020171
:1002100001020408102040808040201008040201E0
:100220008004020180402010080402010804020139
:1002300001020408102040800102040810204080C0
:1002400005050505070508080808020202020A0A52
:100250000808040404040101010101010101030370
:10026000030303030303040707070C0C0C0C0C0C1B
:100270000C0C0202020206060606060606060B0B18
:100280000B0B0B0B0B0B00002200250028002B0092
:100290002E003100340002010000050108010B01AD
:1002A00000407A10F35A00A0724E18090010A5D42D
:1002B000E80000E87648170000E40B54020000CA8A
:1002C0009A3B000000E1F5050000809698000000D0
:1002D00040420F000000A08601000000102700002F
:1002E0000000E803000000006400000000000A00B5
:1002F000000000000100000000002C76D888DC67B8
:100300004F0823DFC1DFAE59E1B1B796E5E3E4530F
:10031000C63AE651997696E8E6C28426EB898C9B2C
:1003200062ED407C6FFCEFBC9C9F40F2BAA56FA5CC
:10033000F490055A2AF75C936B6CF9676DC11BFC4E
:10034000E0E40D47FEF520E6B500D0ED902E030069
:10035000943577050080841E080000204E0A0000B6
:1003600000C80C333333330F986E12831141EF8D75
:100370002114893BE65516CFFEE6DB18D1844B38B5
:100380001BF77C1D901DA4BBE424203284725E22E6
:100390008100C9F124ECA1E53D278D06E40B910C09
:1003A0003E0D11241FBECFEFD1E2DEBFCDBF00E076
:1003B0000CBF12E0A0E0B2E0E0E4FDE200E00BBF21
:1003C00002C007900D92A839B107D9F725E0A8E936
:1003D000B2E001C01D92A238B207E1F713E0C2EA11
:1003E000D3E000E006C022970109FE010BBF0E9486
:1003F000AB11CA39D10780E00807A9F70E94AA0EFD
:100400000C949E160C9400002AE032E0FC0121932B
:100410003193CF0164E372E00C947A0E0F931F9333
:10042000CF93DF9300D0CDB7DEB7FC018B01808185
:10043000843209F43196DF0180E09D012E1B3F0BD1
:10044000241735071CF49D918927F7CF40E1BE01A1
:100450006F5F7F4F90E00E94131443E050E0BE01B5
:100460006F5F7F4FC8010E9404140F900F900F9090
:10047000DF91CF911F910F9108952AE032E0FC01A6
:1004800021933193CF010C940C0ECF93DF93EC01A9
:1004900064E372E00E947A0ECE01DF91CF9108955D
:1004A000CF92DF92EF92FF920F931F93CF93DF9340
:1004B000CDB7DEB7AF970FB6F894DEBF0FBECDBF96
:1004C0007C016B0185E2E0E1F2E0DE011196019032
:1004D0000D928A95E1F7FB01678D70A181A192A130
:1004E0008E010A5D1F4F22E047E00E94BE1147E0E7
:1004F00050E0B801CE0109960E940414F60163A1F0
:1005000074A185A196A122E045E00E94BE1145E0BC
:1005100050E0B801CE0145960E9404144CE150E031
:10052000BE01605E7F4FCE0101960E940E02BE01A9
:100530006F5F7F4FC7010E947A0EC701AF960FB65B
:10054000F894DEBF0FBECDBFDF91CF911F910F9109
:10055000FF90EF90DF90CF9008952DE632E0FC0100
:10056000318320830C943D02CF93DF93EC010E94F2
:10057000AD02CE01DF91CF910C94BB0ECF92DF92F2
:10058000EF92FF92CF93DF93EC01CFA0D8A4E9A420
:10059000FAA488EEC80E83E0D81EE11CF11C0E946C
:1005A000070FC616D706E806F90610F50E94070FD2
:1005B0006FA378A789A79AA77E0188E0E80EF11CAF
:1005C000C7010E94B00824E630E040E050E00E94FD
:1005D0007311CA01B9010E94B5106F8F78A389A366
:1005E0009AA3C7010E943C086BA37CA38DA39EA382
:1005F000DF91CF91FF90EF90DF90CF9008950F9310
:100600001F93CF93DF93EC010E9404028DE692E0EA
:10061000998388838E01085F1F4FC8010E940F07CE
:100620001F8E18A219A21AA21BA21CA21DA21EA2F2
:100630001FA218A619A61AA663E0C8010E94CF0738
:10064000811107C065E372E08EE993E00E94FA0D24
:10065000FFCFDF91CF911F910F910895CF93DF933B
:1006600026E040E855E260E070E088ED94E00E940A
:10067000180B26E040EC52E160E070E08BE394E080
:100680000E94180B26E040E855E260E070E08EE939
:1006900093E00E94180B8BE290E00E94B90EEC01EF
:1006A0000E94FF02D0939902C0939802DF91CF91EC
:1006B0000895CF93DF93CDB7DEB72C970FB6F8949C
:1006C000DEBF0FBECDBF64E372E0CE0107960E948D
:1006D0007A0E8091980290919902DC01ED91FC9143
:1006E0000480F581E02D199560919802709199022E
:1006F000DB01ED91FC910280F381E02DCE010196AA
:100700001995BE016F5F7F4FCE0107960E94900E34
:10071000CE0101960E940C0EBE01695F7F4F88EDED
:1007200094E00E94E80DBE01695F7F4F8EE993E07F
:100730000E94E80D8EE993E00E94D40DCE01079649
:100740000E940C0E2C960FB6F894DEBF0FBECDBFE4
:10075000DF91CF9108951092070381E08093050304
:100760001092040361E084E10E94141061E085E1CD
:100770000E941410E9EBF0E080818E7F80838081FD
:100780008D7F808388E48093B80085E48093BC00EB
:100790000895413208F03FC0909107039111FCCFBA
:1007A00091E090930703209305032FEF20939A0283
:1007B0001092DF02240F2093DE02909306039091A3
:1007C0000603880F892B80930603809104038130F0
:1007D00041F410920403809106038093BB0085ECE2
:1007E00001C085EE8093BC00809107038130E1F366
:1007F0008091DF02841710F44091DF0220EE32E096
:10080000FB01D9018A2F821B841718F48D918193E3
:10081000F9CF842F089580E008950F93413208F0B6
:1008200046C0909107039111FCCF92E0909307038B
:10083000009305039FEF90939A021092DF0240937A
:10084000DE02FB0160EE72E0DB019A2F961B94172B
:1008500018F491919D93F9CF10920603909106039D
:10086000880F892B8093060380910403813041F423
:1008700010920403809106038093BB0085EC01C0B5
:1008800085EE8093BC00222321F080910703823003
:10089000E1F380919A028F3F61F080919A02803259
:1008A00051F080919A02803341F483E007C081E0E7
:1008B00005C080E003C082E001C084E00F9108958C
:1008C000613298F420910703243089F46093BC02CC
:1008D000FC018EEB92E0DC012A2F281B261718F46E
:1008E00021912D93F9CF80E0089581E0089582E071
:1008F000089585ED8093BC008091BC0084FDFCCF01
:1009000010920703089585EC8093BC0010920703B2
:1009100008951F920F920FB60F9211240BB60F92EB
:100920002F933F934F935F936F937F938F939F93F7
:10093000AF93BF93EF93FF938091B900887F803688
:1009400009F49CC068F5883209F45BC090F48031EA
:1009500009F454C038F4882309F4F5C0883009F448
:100960004DC0F5C0883109F44CC0803209F45DC037
:10097000EEC0803409F468C048F4803309F455C0EF
:10098000883309F0E4C080939A02A8C0803509F446
:100990004FC0883509F45DC0883409F0D8C0D5C08F
:1009A000883909F4C6C0A8F4883709F467C038F458
:1009B000883609F463C0803709F460C0C8C088383D
:1009C00009F4B7C0803909F45FC0803809F0BFC0AE
:1009D0005BC0803B09F485C038F4803A09F466C0F6
:1009E000883A09F47EC0B3C0803C09F4A6C0883CB4
:1009F00009F4A3C0883B09F489C0A9C0809106030B
:100A000010C09091DF028091DE02981770F5E0919E
:100A1000DF0281E08E0F8093DF02F0E0E052FD4FB5
:100A200080818093BB0085EC85C080939A028DC045
:100A3000E091DF0281E08E0F8093DF028091BB00A6
:100A4000F0E0E052FD4F80839091DF028091DE0262
:100A50006DC0E091DF0281E08E0F8093DF02809114
:100A6000BB00F0E0E052FD4F8083809105038111CF
:100A70006CC081E08093040384EA60C083E08093CB
:100A8000070310929B02CFCF80919B02803208F027
:100A900050C0E0919B0281E08E0F80939B02809179
:100AA000BB00F0E0E456FD4F8083BDCF80919B02F8
:100AB000803230F4E0919B02F0E0E456FD4F10826A
:100AC0000E94790460919B0270E0E0910003F09134
:100AD00001038CE992E0199510929B020E94830415
:100AE00036C084E0809307031092BD021092BC02CE
:100AF000E0910203F091030319958091BC028111EA
:100B000005C081E08093BC021092BE02E091BD025C
:100B100081E08E0F8093BD02F0E0E254FD4F8081B2
:100B20008093BB009091BD028091BC02981708F49D
:100B30007ACF85E88093BC000AC085EC8093BC0026
:100B40001092070304C010929A020E947904FF9148
:100B5000EF91BF91AF919F918F917F916F915F9135
:100B60004F913F912F910F900BBE0F900FBE0F90A2
:100B70001F9018958091380390E020913903821BD3
:100B8000910908952091390380913803281750F472
:100B9000E22FF0E0E65CFC4F808190E02F5F209335
:100BA000390308958FEF9FEF0895E0913903809105
:100BB0003803E81730F4F0E0E65CFC4F808190E009
:100BC00008958FEF9FEF08950895CF92DF92EF92EF
:100BD000FF920F931F93CF93DF937C01CB018A0188
:100BE00020911403222389F0EB016B01C40ED51E62
:100BF000CC15DD0569F06991D701ED91FC9101906B
:100C0000F081E02DC7011995F3CF642F0E94600495
:100C1000C801DF91CF911F910F91FF90EF90DF906E
:100C2000CF900895CF93DF931F92CDB7DEB769833E
:100C3000209114032223D1F020911503203240F09B
:100C400021E030E0FC013383228380E090E015C096
:100C500080911603E82FF0E0E95EFC4F99819083C4
:100C60008F5F809316038093150305C061E0CE016A
:100C700001960E94600481E090E00F90DF91CF9197
:100C80000895FC011382128248EE53E060E070E0A8
:100C900044835583668377838BE792E091838083D7
:100CA000089510923903109238031092160310928F
:100CB00015030C94AB03862F413208F040E26AE33F
:100CC00073E00E94C903109239038093380308959A
:100CD00021E00C945B0681E080931403609337035A
:100CE000109216031092150308950C946B060F933F
:100CF000062F21E04091150367E173E080913703EF
:100D00000E940D0410921603109215031092140302
:100D10000F91089561E00C94770688E093E00C94BD
:100D200041061F920F920FB60F9211240BB60F922D
:100D30002F933F934F935F936F937F938F939F93E3
:100D4000AF93BF93EF93FF93E0919C03F0919D03CA
:100D5000309709F451C0868DA685B785958581FFAA
:100D600004C08C91892329F447C08C91892309F010
:100D700043C0A389B4899C918589809589238C93EC
:100D8000868997890197F1F7208D318DA685B785E2
:100D9000758558E040E0C9010197F1F7842F90E094
:100DA00095958795482F6C91672309F040685150BD
:100DB00091F7868D81FD409580915B0390E00196CF
:100DC0008F73992720915A03281749F0A0915B034C
:100DD000B0E0A45ABC4F4C9380935B0303C0868D54
:100DE0008160868F828D938D0197F1F7A389B489F5
:100DF0008C919589892B8C93FF91EF91BF91AF9145
:100E00009F918F917F916F915F914F913F912F9122
:100E10000F900BBE0F900FBE0F901F901895089566
:100E2000CF92DF92EF92FF92FC0185899689481B51
:100E3000590B61097109A389B4899A01AB010E9418
:100E400098116B017C018FE0F594E794D794C794D7
:100E50008A95D1F765857685882777FD8095982FC7
:100E60002BE0660F771F881F991F2A95D1F72785DA
:100E70003089442737FD4095542F2C0D3D1D4E1DC4
:100E80005F1D0E9473112C0D3D1D4E1D5F1DCA017B
:100E9000B901FF90EF90DF90CF9008951F93CF930B
:100EA000DF931F92CDB7DEB7162F67E770E088E0BB
:100EB00093E049830E947506612F88E093E00E94C9
:100EC00012064981642F88E093E00E94120688E0B0
:100ED00093E00F90DF91CF911F910C948A06CF93EE
:100EE000C62F67E770E088E093E00E9475066C2FDC
:100EF00088E093E00E94120688E093E00E948A0650
:100F000067E770E088E093E00E94750641E050E0FA
:100F100067E770E088E093E00E94680688E093E06D
:100F20000E94C205C82F88E093E00E948A068C2F99
:100F3000CF910895CF93DF93C62F67E770E088E0E5
:100F400093E00E9475066C2F88E093E00E941206E1
:100F500088E093E00E948A0667E770E088E093E00B
:100F60000E94750642E050E067E770E088E093E099
:100F70000E94680688E093E00E94C205D82F80E0B6
:100F8000C82F88E093E00E94C205C82BD92B88E0C7
:100F900093E00E948A06CE01DF91CF910895CF930E
:100FA000DF93EC01643008F063E0688388E093E04D
:100FB0000E94510660EDCE010E946F07853509F051
:100FC00044C06AEACE010E949A079A8389836CEA38
:100FD000CE010E949A079C838B836EEACE010E9409
:100FE0009A079E838D8360EBCE010E949A079A8BAD
:100FF000898B62EBCE010E949A079C8B8B8B64EBF2
:10100000CE010E949A079E8B8D8B66EBCE010E94CB
:101010009A0798878F8368EBCE010E949A079A8778
:1010200089876AEBCE010E949A079C878B876CEBBD
:10103000CE010E949A079E878D876EEBCE010E949B
:101040009A07988B8F8781E001C080E0DF91CF9174
:101050000895CF93DF93EC014EE264EF0E944E07B8
:1010600065E070E080E090E00E94360F66EFCE0110
:10107000DF91CF910C949A07CF93DF93EC010E94FC
:101080002908AC0160E070E0CE010E941007685FA3
:101090007F4F8F4F9F4F34E0959587957795679554
:1010A0003A95D1F70E94B51020E030E040E251E4DB
:1010B0000E944B10DF91CF910895CF92DF92EF9273
:1010C000FF92CF93DF93EC0148814295440F440F88
:1010D000407C4C5C64EF0E944E078881811105C002
:1010E00065E070E080E090E012C0813029F468E0B3
:1010F00070E080E090E00BC0823029F46EE070E098
:1011000080E090E004C06AE170E080E090E00E943E
:10111000360F66EFCE010E949A076C01E12CF12C8C
:10112000FE2CED2CDC2CCC2468EFCE010E946F0746
:10113000A7019601282BCA01B901488128E030E0B7
:10114000241B310904C096958795779567952A9554
:10115000D2F7DF91CF91FF90EF90DF90CF9008957D
:101160002F923F924F925F926F927F928F929F92B7
:10117000AF92BF92CF92DF92EF92FF920F931F93A5
:10118000CF93DF93CDB7DEB72A970FB6F894DEBFC3
:101190000FBECDBF9A8789870E9429088C01898557
:1011A0009A850E945D086D837E838F839887A8014E
:1011B00060E070E089859A850E9410074B015C0110
:1011C00080EA881A8FE0980AA108B108A501940165
:1011D000C501B4010E9441112B013C010CE0759442
:1011E0006794579447940A95D1F7A985BA851196C3
:1011F0002D903C9012971C9115960D90BC91A02DAE
:101200000E94A3116B017C018DE0F594E794D794C3
:10121000C7948A95D1F7E985FA85A781B085A3019E
:1012200092010E94A311BB2797FDB095AB2FC80E6A
:10123000D91EEA1EFB1EF2E0CF0ED11CE11CF11CF0
:1012400032E0F594E794D794C7943A95D1F780E8C3
:10125000D80EE11CF11CE985FA85A189B289A701A4
:1012600096010E949811DC01CB014FE0B695A7953D
:10127000979587954A95D1F789839A83AB83BC83E9
:101280006101EE24D7FCE094FE2C52E0CC0CDD1C76
:10129000EE1CFF1C5A95D1F7A185B285A3019201DE
:1012A0000E94A3112B013C016BE075946794579445
:1012B00047946A95D1F7A381B481A50194010E9456
:1012C000A311EBE09595879577956795EA95D1F70A
:1012D000460E571E681E791EC40CD51CE61CF71C52
:1012E000012E04C0CC0CDD1CEE1CFF1C0A94D2F7AE
:1012F00092E0C90ED11CE11CF11CC701B60124E02B
:1013000030E040E050E00E9473118D819E81AF81FA
:10131000B885821B930BA40BB50B9C01AD0160E556
:1013200073EC80E090E004C096958795779567957B
:101330001A95D2F70E94411197FD0DC0660F771FD5
:10134000881F991F29813A814B815C810E9451112C
:1013500049015A010CC029813A814B815C810E946C
:10136000511149015A01880C991CAA1CBB1C9927D0
:10137000B7FC9A958B2D7A2D692D9B01AC010E94AB
:1013800041119B01AC01AEEDBBE00E9498116C01D4
:10139000FF24D7FCF094EF2CA3E4B3EEA501940155
:1013A0000E94A611BB2797FDB095AB2FC80ED91E82
:1013B000EA1EFB1E9FECC90E9EE0D91EE11CF11C2B
:1013C000A4E0F594E794D794C794AA95D1F7C80CF4
:1013D000D91CEA1CFB1CC701B6012A960FB6F8946B
:1013E000DEBF0FBECDBFDF91CF911F910F91FF9058
:1013F000EF90DF90CF90BF90AF909F908F907F90B5
:101400006F905F904F903F902F900895FC01818DD9
:10141000228D90E0805C9F4F821B91098F739927EA
:101420000895FC01918D828D981731F0828DE80F1F
:10143000F11D858D90E008958FEF9FEF0895FC01D9
:10144000918D828D981761F0828DDF01A80FB11DFB
:101450005D968C91928D9F5F9F73928F90E008951F
:101460008FEF9FEF08958AED9BE0892B41F080E09C
:1014700090E0892B21F00E94DA0B811125C080E0D9
:1014800090E0892B41F080E090E0892B21F00E94D0
:10149000000081111CC087E89CE0892B41F080E0AE
:1014A00090E0892B21F00E94870C811113C084E306
:1014B0009DE0892BA1F080E090E0892B81F00E94D3
:1014C000340D81110AC008950E940000D8CF0E94F7
:1014D0000000E1CF0E940000EACF0C9400000895C4
:1014E000FC01848DDF01A80FB11DA35ABF4F2C91C1
:1014F000848D90E001968F739927848FA689B78990
:101500002C93A089B1898C9180648C93938D848D68
:10151000981306C00288F389E02D80818F7D808337
:101520000895CF93DF93EC01888D8823C9F0EA8971
:10153000FB89808185FD05C0A889B9898C9186FDCC
:101540000FC00FB607FCF5CF808185FFF2CFA889C9
:10155000B9898C9185FFEDCFCE010E94700AE7CF4B
:10156000DF91CF910895CF92DF92FF920F931F9357
:10157000CF93DF931F92CDB7DEB76C01DC015B9692
:101580009C915B975C968C915C97981307C05096E2
:10159000ED91FC915197808185FD32C0F601038D5C
:1015A00010E00F5F1F4F0F731127F02EF601848D8F
:1015B000F81211C00FB607FCF9CFD6015096ED9185
:1015C000FC915197808185FFF1CFC60169830E940C
:1015D000700A6981EBCF838DE80FF11DE35AFF4F4D
:1015E0006083D6015B960C935B975296ED91FC91CC
:1015F000539780818062808381E058968C930DC0E0
:10160000D6015696ED91FC91579760835096ED91D7
:10161000FC91519780818064808381E090E00F90FD
:10162000DF91CF911F910F91FF90DF90CF900895A0
:10163000BF92CF92DF92EF92FF92CF93DF93EC01B4
:101640006A017B01B22EE889F98982E08083411525
:1016500081EE580761057105A1F060E079E08DE346
:1016600090E0A70196010E945111215031094109D2
:1016700051095695479537952795211580E13807EB
:1016800098F0E889F989108260E874E88EE190E0CA
:10169000A70196010E9451112150310941095109B8
:1016A0005695479537952795EC85FD853083EE85D2
:1016B000FF852083188EEC89FD89B082EA89FB8939
:1016C000808180618083EA89FB8980818860808352
:1016D000EA89FB89808180688083EA89FB8980812F
:1016E0008F7D8083DF91CF91FF90EF90DF90CF903F
:1016F000BF9008951F920F920FB60F9211240BB650
:101700000F922F938F939F93EF93FF93E091AE03EC
:10171000F091AF038081E091B403F091B50382FDB5
:1017200012C090818091B7038F5F8F732091B803AF
:10173000821751F0E091B703F0E0E256FC4F958F2D
:101740008093B70301C08081FF91EF919F918F91AA
:101750002F910F900BBE0F900FBE0F901F901895FA
:101760001F920F920FB60F9211240BB60F922F9368
:101770003F934F935F936F937F938F939F93AF9319
:10178000BF93EF93FF938EE993E00E94700AFF915D
:10179000EF91BF91AF919F918F917F916F915F91E9
:1017A0004F913F912F910F900BBE0F900FBE0F9056
:1017B0001F9018958EE993E00E94060A21E0892B7C
:1017C00009F420E0822F08951092A1031092A00343
:1017D00088EE93E0A0E0B0E08093A2039093A3038F
:1017E000A093A403B093A5038BE892E090939F038A
:1017F00080939E0385EC90E09093AB038093AA03C3
:1018000084EC90E09093AD038093AC0380EC90E087
:101810009093AF038093AE0381EC90E09093B1037B
:101820008093B00382EC90E09093B3038093B20373
:1018300086EC90E09093B5038093B4031092B703C5
:101840001092B8031092B9031092BA0308951F9230
:101850000F920FB60F9211240BB60F922F938F9306
:101860009F93EF93FF93E0914B04F0914C048081A0
:10187000E0915104F091520482FD12C09081809158
:1018800054048F5F8F7320915504821751F0E091BB
:101890005404F0E0E55CFB4F958F8093540401C045
:1018A0008081FF91EF919F918F912F910F900BBEAF
:1018B0000F900FBE0F901F9018951F920F920FB6AA
:1018C0000F9211240BB60F922F933F934F935F9378
:1018D0006F937F938F939F93AF93BF93EF93FF93F8
:1018E0008BE394E00E94700AFF91EF91BF91AF915A
:1018F0009F918F917F916F915F914F913F912F9128
:101900000F900BBE0F900FBE0F901F9018958BE39A
:1019100094E00E94060A21E0892B09F420E0822F3E
:10192000089510923E0410923D0488EE93E0A0E0EA
:10193000B0E080933F0490934004A0934104B0939F
:1019400042048BE892E090933C0480933B0485ED45
:1019500090E0909348048093470484ED90E0909346
:101960004A048093490480ED90E090934C04809366
:101970004B0481ED90E090934E0480934D0482EDF2
:1019800090E09093500480934F0486ED90E0909304
:1019900052048093510410925404109255041092F2
:1019A00056041092570408951F920F920FB60F928B
:1019B00011240BB60F922F938F939F93EF93FF9366
:1019C000E091E804F091E9048081E091EE04F09167
:1019D000EF0482FD12C090818091F1048F5F8F73BC
:1019E0002091F204821751F0E091F104F0E0E85206
:1019F000FB4F958F8093F10401C08081FF91EF919F
:101A00009F918F912F910F900BBE0F900FBE0F9053
:101A10001F9018951F920F920FB60F9211240BB6BC
:101A20000F922F933F934F935F936F937F938F9377
:101A30009F93AF93BF93EF93FF9388ED94E00E9441
:101A4000700AFF91EF91BF91AF919F918F917F911C
:101A50006F915F914F913F912F910F900BBE0F901F
:101A60000FBE0F901F90189588ED94E00E94060A13
:101A700021E0892B09F420E0822F08951092DB04E5
:101A80001092DA0488EE93E0A0E0B0E08093DC04EA
:101A90009093DD04A093DE04B093DF048BE892E022
:101AA0009093D9048093D80485E391E09093E50462
:101AB0008093E40484E391E09093E7048093E60448
:101AC00080E391E09093E9048093E80481E391E05E
:101AD0009093EB048093EA0482E391E09093ED0409
:101AE0008093EC0486E391E09093EF048093EE04FE
:101AF0001092F1041092F2041092F3041092F40484
:101B00000895CF92DF92EF92FF920F931F93CF939E
:101B1000DF936C017A01EB01E60EF71E00E010E0A6
:101B2000CE15DF0561F06991D601ED91FC91019030
:101B3000F081E02DC6011995080F191FF1CFC801DA
:101B4000DF91CF911F910F91FF90EF90DF90CF9099
:101B500008956115710581F0DB010D900020E9F712
:101B6000AD0141505109461B570BDC01ED91FC9131
:101B70000280F381E02D199480E090E00895DC016B
:101B8000ED91FC91DB0114964D915C9115976D914F
:101B90007C910280F381E02D1994DC01ED91FC91A0
:101BA0000190F081E02D19940F931F93CF93DF9351
:101BB000EC016DE00E94CD0D8C016AE0CE010E9427
:101BC000CD0D800F911FDF91CF911F910F9108953F
:101BD0000F931F93CF93DF93EC010E94BF0D8C01F5
:101BE000CE010E94D40D800F911FDF91CF911F91E4
:101BF0000F9108950F931F93CF93DF93EC010E94F1
:101C0000A90D8C01CE010E94D40D800F911FDF9190
:101C1000CF911F910F910895FC01808191810C94C7
:101C20007712CF93DF93EC0188819981009711F0AF
:101C30000E947712198218821D821C821B821A82CE
:101C4000DF91CF9108950F931F93CF93DF93EC0112
:101C50008B016F5F7F4F888199810E9406130097E7
:101C600031F0998388831B830A8381E001C080E07F
:101C7000DF91CF911F910F910895CF93DF93EC01E6
:101C800088819981892B29F08A819B818617970702
:101C900060F4CE010E94230E882341F08C819D8147
:101CA000892B19F4E881F981108281E0DF91CF91CD
:101CB0000895EF92FF920F931F93CF93DF93EC0160
:101CC0007B018A01BA010E943D0E811104C0CE0140
:101CD0000E94110E07C01D830C83B7018881998172
:101CE0000E94FD13CE01DF91CF911F910F91FF90C4
:101CF000EF900895FC0111821082138212821582E6
:101D000014826115710559F0FB0101900020E9F77B
:101D1000AF0141505109461B570B0C94590E0895C1
:101D2000CF93DF93EC01FB018617970761F0608189
:101D300071816115710529F0448155810E94590E08
:101D400002C00E94110ECE01DF91CF9108950E9432
:101D5000EF1308950E945E0F0E94A90E0E942E03A9
:101D6000C3E3DAE00E9459032097E1F30E94330AAB
:101D7000F9CF0C94DF110C9477121F920F920FB6CB
:101D80000F9211242F933F938F939F93AF93BF9301
:101D90008091760590917705A0917805B0917905AD
:101DA0003091750523E0230F2D3720F40196A11DF6
:101DB000B11D05C026E8230F0296A11DB11D209379
:101DC00075058093760590937705A0937805B09379
:101DD000790580917A0590917B05A0917C05B09161
:101DE0007D050196A11DB11D80937A0590937B0519
:101DF000A0937C05B0937D05BF91AF919F918F918A
:101E00003F912F910F900FBE0F901F9018952FB7F5
:101E1000F89460917605709177058091780590919E
:101E200079052FBF08953FB7F89480917A05909176
:101E30007B05A0917C05B0917D0526B5A89B05C0CA
:101E40002F3F19F00196A11DB11D3FBF6627782FC6
:101E5000892F9A2F620F711D811D911D42E0660F1F
:101E6000771F881F991F4A95D1F70895CF92DF9267
:101E7000EF92FF92CF93DF936B017C010E94130FCF
:101E8000EB01C114D104E104F10489F00E944A106D
:101E90000E94130F6C1B7D0B683E734090F381E032
:101EA000C81AD108E108F108C851DC4FEACFDF9128
:101EB000CF91FF90EF90DF90CF900895789484B504
:101EC000826084BD84B5816084BD85B5826085BD36
:101ED00085B5816085BDEEE6F0E08081816080831C
:101EE000E1E8F0E0108280818260808380818160FF
:101EF0008083E0E8F0E0808181608083E1EBF0E0C6
:101F0000808184608083E0EBF0E080818160808369
:101F1000E1E9F0E08081826080838081816080835C
:101F2000E0E9F0E0808181608083E1EAF0E0808197
:101F300082608083808181608083E0EAF0E080813C
:101F400081608083E1E2F1E0808182608083808132
:101F500081608083E0E2F1E0808181608083EAE754
:101F6000F0E08081846080838081826080838081D2
:101F7000816080838081806880831092C100089591
:101F800090E0FC013197E231F10508F04CC0EE58C9
:101F9000FF4F0C949211809180008F7703C0809145
:101FA00080008F7D80938000089580918000877FDE
:101FB000F9CF84B58F7702C084B58F7D84BD089535
:101FC0008091B0008F7703C08091B0008F7D8093A7
:101FD000B0000895809190008F7707C080919000A5
:101FE0008F7D03C080919000877F8093900008953B
:101FF0008091A0008F7707C08091A0008F7D03C0E3
:102000008091A000877F8093A00008958091200197
:102010008F7707C0809120018F7D03C080912001C0
:10202000877F8093200108950F931F93CF93DF93B1
:102030001F92CDB7DEB7282F30E0F901EC54FE4FE8
:102040008491F901E650FE4F1491F901E05CFD4FD7
:1020500004910023C9F0882321F069830E94C00FF6
:102060006981E02FF0E0EE0FFF1FEA57FD4FA591C9
:10207000B4919FB7F8948C91611103C0109581239E
:1020800001C0812B8C939FBF0F90DF91CF911F9147
:102090000F91089508950CD0BAC0B2D040F0A9D0E5
:1020A00030F021F45F3F19F09BC05111E4C09EC095
:1020B000BFD098F39923C9F35523B1F3951B550B62
:1020C000BB27AA2762177307840738F09F5F5F4F0B
:1020D000220F331F441FAA1FA9F333D00E2E3AF04C
:1020E000E0E830D091505040E695001CCAF729D066
:1020F000FE2F27D0660F771F881FBB1F26173707B5
:102100004807AB07B0E809F0BB0B802DBF01FF27E4
:1021100093585F4F2AF09E3F510568F061C0ABC0F5
:102120005F3FECF3983EDCF3869577956795B7951E
:10213000F7959F5FC9F7880F911D9695879597F939
:102140000895E1E0660F771F881FBB1F62177307B2
:102150008407BA0720F0621B730B840BBA0BEE1FC7
:1021600088F7E0950895E89409C097FB3EF49095B0
:102170008095709561957F4F8F4F9F4F9923A9F060
:10218000F92F96E9BB279395F695879577956795EF
:10219000B795F111F8CFFAF4BB0F11F460FF1BC033
:1021A0006F5F7F4F8F4F9F4F16C0882311F096E9C6
:1021B00011C0772321F09EE8872F762F05C0662374
:1021C00071F096E8862F70E060E02AF09A95660F2D
:1021D000771F881FDAF7880F9695879597F90895E6
:1021E00097F99F6780E870E060E008959FEF80ECCA
:1021F000089500240A94161617061806090608956D
:1022000000240A9412161306140605060895092ED2
:102210000394000C11F4882352F0BB0F40F4BF2B41
:1022200011F460FF04C06F5F7F4F8F4F9F4F089581
:1022300057FD9058440F551F59F05F3F71F0479577
:10224000880F97FB991F61F09F3F79F0879508955C
:10225000121613061406551FF2CF4695F1DF08C07B
:10226000161617061806991FF1CF86957105610598
:1022700008940895E894BB2766277727CB0197F940
:102280000895DB018F939F930E949811BF91AF91A6
:10229000A29F800D911DA39F900DB29F900D1124C0
:1022A0000895A1E21A2EAA1BBB1BFD010DC0AA1F97
:1022B000BB1FEE1FFF1FA217B307E407F50720F0AF
:1022C000A21BB30BE40BF50B661F771F881F991F2A
:1022D0001A9469F760957095809590959B01AC0173
:1022E000BD01CF010895052E97FB1EF400940E94B6
:1022F0008A1157FD07D00E94511107FC03D04EF4FC
:102300000C948A1150954095309521953F4F4F4F31
:102310005F4F089590958095709561957F4F8F4F91
:102320009F4F0895EE0FFF1F0590F491E02D199433
:102330000E94AF11A59F900DB49F900DA49F800D9A
:10234000911D11240895B7FF0C9498110E949811C3
:10235000821B930B08950790F691E02D1994A29F8C
:10236000B001B39FC001A39F700D811D1124911D69
:10237000B29F700D811D1124911D0895EF920F934E
:102380001F93CF93DF93E80147FF02C034E101C000
:1023900034E0E42FFF27E7FDF095F7FF03C0F19548
:1023A000E195F109E32E022F2E2FAE010E94381481
:1023B000CE01DF91CF911F910F91EF900895CF93B0
:1023C000DF938230910510F482E090E0E091800587
:1023D000F091810520E030E0A0E0B0E0309739F1E5
:1023E0004081518148175907B8F04817590771F4CF
:1023F00082819381109729F013969C938E93129764
:102400002CC0909381058093800527C0211531054C
:1024100031F04217530718F0A901DB0101C0EF01A9
:102420009A01BD01DF010280F381E02DD7CF211594
:102430003105F9F0281B390B2430310580F48A81ED
:102440009B816115710521F0FB019383828304C098
:102450009093810580938005FE01329644C0FE0171
:10246000E20FF31F8193919322503109398328831E
:102470003AC020917E0530917F05232B41F42091B5
:1024800002023091030230937F0520937E05209154
:102490000002309101022115310541F42DB73EB7FC
:1024A0004091040250910502241B350BE0917E05FA
:1024B000F0917F05E217F307A0F42E1B3F0B2817BE
:1024C000390778F0AC014E5F5F4F2417350748F0AD
:1024D0004E0F5F1F50937F0540937E05819391932C
:1024E00002C0E0E0F0E0CF01DF91CF910895CF93FB
:1024F000DF93009709F487C0FC01329713821282A0
:10250000C0918005D0918105209781F4208131818F
:10251000280F391F80917E0590917F0582179307C0
:1025200079F5F0937F05E0937E056DC0DE0120E034
:1025300030E0AE17BF0750F412964D915C9113979F
:102540009D014115510509F1DA01F3CFB383A2834F
:1025500040815181840F951F8A179B0771F48D91DB
:102560009C911197840F951F0296918380831296F8
:102570008D919C911397938382832115310529F4C2
:10258000F0938105E09380053EC0D9011396FC933A
:10259000EE9312974D915D91A40FB51FEA17FB07BB
:1025A00079F480819181840F951F0296D90111964B
:1025B0009C938E938281938113969C938E93129712
:1025C000E0E0F0E08A819B81009719F0FE01EC01C8
:1025D000F9CFCE01029628813981820F931F209175
:1025E0007E0530917F052817390769F4309729F463
:1025F000109281051092800502C013821282D0933E
:102600007F05C0937E05DF91CF9108956F927F92F1
:102610008F929F92AF92BF92CF92DF92EF92FF92F2
:102620000F931F93CF93DF93EC01CB01209781F49D
:10263000DF91CF911F910F91FF90EF90DF90CF909E
:10264000BF90AF909F908F907F906F900C94DF1110
:10265000FE01E60FF71F9E0122503109E217F30732
:1026600008F4ACC0D9010D911C91119706171707FA
:10267000B8F00530110508F49FC0A8014450510975
:102680004617570708F498C002501109061B170B8C
:10269000019311936D937C93CF010E9477128CC0AC
:1026A0005B01A01AB10A4E01800E911EA091800517
:1026B000B0918105612C712C60E070E0109709F4F5
:1026C00049C0A815B905C9F5ED90FC9011976701AF
:1026D00042E0C40ED11CCA14DB0478F147018A1809
:1026E0009B08640142E0C40ED11C1296BC90129764
:1026F0001396AC91B5E0CB16D10440F0B282A3831F
:1027000091828082D9018D939C9309C00E5F1F4FE7
:102710000E0D1F1DF90111830083EB2DFA2F61159A
:10272000710531F0DB011396FC93EE93129744C0D0
:10273000F0938105E09380053FC06D917C911197E6
:102740006616770608F43B01BD0112960D90BC9108
:10275000A02DB4CF60917E0570917F056815790535
:10276000E9F468167906D0F4409100025091010214
:102770004115510541F44DB75EB760910402709167
:102780000502461B570BE417F507C0F4F0937F05CD
:10279000E0937E05F901918380830EC00E94DF11D2
:1027A0007C01009759F0A801BE010E94F413CE01EC
:1027B0000E947712C70104C0CE0102C080E090E001
:1027C000DF91CF911F910F91FF90EF90DF90CF900D
:1027D000BF90AF909F908F907F906F90089581E011
:1027E00090E0F8940C949E16FB01DC0102C001906D
:1027F0000D9241505040D8F70895FB01DC01019043
:102800000D920020E1F70895FB01DC01415050409A
:1028100048F001900D920020C9F701C01D9241506F
:102820005040E0F70895BB274A3031F4992322F451
:10283000BDE2909581959F4F0C941F14BB27FB011F
:102840005527AA27880F991FAA1FA41710F0A41BA9
:1028500083955051B9F7A05DAA3308F0A95DA19303
:10286000009779F7B111B1931192CB010C948E16A8
:102870006F927F929F92AF92BF92CF92DF92EF9230
:10288000FF920F931F93CF93DF93CDB7DEB72997B6
:102890000FB6F894DEBF0FBECDBF6A01B22E102F67
:1028A0000C3320F4FF24F394F00E02C04CE3F42E1A
:1028B0000F2D27E0AE014F5F5F4F0E94B615798163
:1028C000272F2970213031F0E1FC06C0E0FC06C062
:1028D00060E005C06DE203C06BE201C060E2AE2DB6
:1028E000A07173FF36C0662311F084E001C083E05D
:1028F0008B1510F4B81A01C0B12CA1110BC0F60150
:102900008B2D90E2882319F091938150FBCFCB0C53
:10291000D11CB12C662331F0F601608396012F5F44
:102920003F4F6901C6010396E2FE05C02EE4F601A1
:10293000208331E404C02EE6F601208331E63183A2
:102940002283FC012B2D30E22223F1F1319321501F
:10295000FBCF72FF40C0662311F084E001C083E02A
:102960008B1510F4B81A01C0B12CA1110BC0F601DF
:102970008B2D90E2882319F091938150FBCFCB0CE3
:10298000D11CB12C662331F0F601608396012F5FD4
:102990003F4F6901C6010396E2FE07C029E4F60134
:1029A00020832EE4218326E406C029E6F601208355
:1029B0002EE6218326E62283FC012B2D30E2222302
:1029C00019F031932150FBCFFC01EB0DF11D10826A
:1029D0008EEF9FEFB7C0B1E0611101C0B0E04B2FA7
:1029E00050E01816190624F49C012F5F3F4F02C0D7
:1029F00021E030E0240F351F112329F0412F50E052
:102A00004F5F5F4F02C040E050E0420F531F2B2D3D
:102A100030E04217530714F4B41A01C0B12C2E2D24
:102A2000287159F4F6012B2D30E2222319F031934D
:102A30002150FBCFCB0CD11CB12CBB2331F0F601C4
:102A4000608396012F5F3F4F6901A1110BC0F60112
:102A50002B2D30E3222319F031932150FBCFCB0CE7
:102A6000D11CB12CF80E0A81372F3071A32E74FFC0
:102A700003C0013309F4FA941F142CF42F2D2930CC
:102A800018F028E001C021E0682F392F97FF02C01D
:102A900060E030E0462F532F612C712C3EE2932EE4
:102AA000BC01621B71099B01DC01A41BB50BE1E0B9
:102AB000F0E0EC0FFD1FAE0FBF1FE12EF12CF194E3
:102AC000E194F1084F3FFFEF5F0731F4F601908288
:102AD000B6016F5F7F4F6B01841795074CF0241789
:102AE000350734F4BD01660D771DFB01118101C06E
:102AF00010E341505109FFEF6F1A7F0AB6016F5F73
:102B00007F4F4E155F0524F0F60110836B01DACF7D
:102B10004817590739F4063320F4053319F4A11086
:102B200001C011E3F6011083FB018B2D90E2882395
:102B300019F091938150FBCFFB01EB0DF11D108239
:102B400080E090E029960FB6F894DEBF0FBECDBFAF
:102B5000DF91CF911F910F91FF90EF90DF90CF9079
:102B6000BF90AF909F907F906F900895283008F0AD
:102B700027E03327DA01990F311D87FD9160009618
:102B80006105710539F432602E5F3D9330E32A957B
:102B9000E1F708959F3F30F080387105610509F035
:102BA0003C5F3C5F3D93913008F08068911DDF935E
:102BB000CF931F930F93FF92EF92192F987F9695C3
:102BC000E92F96959695E90FFF27E650FD4F992737
:102BD0003327EE24FF24A701E7010590089407940A
:102BE00028F4360FE71EF81E491F511D660F771F88
:102BF000881F991F0694A1F70590079428F4E70E03
:102C0000F81E491F561FC11D770F881F991F661F89
:102C10000694A1F70590079428F4F80E491F561F53
:102C2000C71FD11D880F991F661F771F0694A1F734
:102C30000590079420F4490F561FC71FD81F990FFE
:102C4000661F771F881F0694A9F784911095177047
:102C500041F0D695C79557954795F794E7941A95FF
:102C6000C1F7E0EAF2E0689415901591359165910D
:102C7000959105907FE27395E118F10A430B560B8D
:102C8000C90BD009C0F7E10CF11E431F561FC91F25
:102C9000D01D7EF4703311F48A95E6CFE89401508C
:102CA00030F0080F0AF40027021708F4202F2395AC
:102CB000022F7A3328F079E37D932A95E9F710C043
:102CC0007D932A9589F6069497956795379517957C
:102CD0001794E118F10A430B560BC90BD00998F071
:102CE00023957E9173957A3308F070E37C932013DB
:102CF000B8F77E9170617D9330F0839571E37D9399
:102D000070E32A95E1F71124EF90FF900F911F9146
:102D1000CF91DF91992787FD90950895DC01FC0103
:102D2000672F71917723E1F7329704C07C916D93FF
:102D300070836291AE17BF07C8F30895F894FFCF70
:102D400000008205800000000000A70EA70EA70E5D
:102D50002450414D50522C30303030302E30302CF9
:102D60006850612C3030302E30302CC2B0432A20D5
:102D70002020202000436F756C64206E6F742066E5
:102D8000696E6420612076616C696420424D503028
:102D900038352073656E736F722C20636865636BC2
:102DA00020776972696E67210000000000450250BB
:102DB00002BE02AD02B402000000001206E505BA30
:102DC00005C205D505E40500000000B30A810D0623
:082DD0000A1F0A110A910A0012
:00000001FF
